{
  "_format": "hh-sol-artifact-1",
  "contractName": "ProductNFT",
  "sourceName": "contracts/ProductNFT.sol",
  "abi": [
    {
      "inputs": [],
      "stateMutability": "nonpayable",
      "type": "constructor"
    },
    {
      "inputs": [
        {
          "internalType": "address",
          "name": "sender",
          "type": "address"
        },
        {
          "internalType": "uint256",
          "name": "tokenId",
          "type": "uint256"
        },
        {
          "internalType": "address",
          "name": "owner",
          "type": "address"
        }
      ],
      "name": "ERC721IncorrectOwner",
      "type": "error"
    },
    {
      "inputs": [
        {
          "internalType": "address",
          "name": "operator",
          "type": "address"
        },
        {
          "internalType": "uint256",
          "name": "tokenId",
          "type": "uint256"
        }
      ],
      "name": "ERC721InsufficientApproval",
      "type": "error"
    },
    {
      "inputs": [
        {
          "internalType": "address",
          "name": "approver",
          "type": "address"
        }
      ],
      "name": "ERC721InvalidApprover",
      "type": "error"
    },
    {
      "inputs": [
        {
          "internalType": "address",
          "name": "operator",
          "type": "address"
        }
      ],
      "name": "ERC721InvalidOperator",
      "type": "error"
    },
    {
      "inputs": [
        {
          "internalType": "address",
          "name": "owner",
          "type": "address"
        }
      ],
      "name": "ERC721InvalidOwner",
      "type": "error"
    },
    {
      "inputs": [
        {
          "internalType": "address",
          "name": "receiver",
          "type": "address"
        }
      ],
      "name": "ERC721InvalidReceiver",
      "type": "error"
    },
    {
      "inputs": [
        {
          "internalType": "address",
          "name": "sender",
          "type": "address"
        }
      ],
      "name": "ERC721InvalidSender",
      "type": "error"
    },
    {
      "inputs": [
        {
          "internalType": "uint256",
          "name": "tokenId",
          "type": "uint256"
        }
      ],
      "name": "ERC721NonexistentToken",
      "type": "error"
    },
    {
      "inputs": [
        {
          "internalType": "address",
          "name": "owner",
          "type": "address"
        }
      ],
      "name": "OwnableInvalidOwner",
      "type": "error"
    },
    {
      "inputs": [
        {
          "internalType": "address",
          "name": "account",
          "type": "address"
        }
      ],
      "name": "OwnableUnauthorizedAccount",
      "type": "error"
    },
    {
      "anonymous": false,
      "inputs": [
        {
          "indexed": true,
          "internalType": "address",
          "name": "owner",
          "type": "address"
        },
        {
          "indexed": true,
          "internalType": "address",
          "name": "approved",
          "type": "address"
        },
        {
          "indexed": true,
          "internalType": "uint256",
          "name": "tokenId",
          "type": "uint256"
        }
      ],
      "name": "Approval",
      "type": "event"
    },
    {
      "anonymous": false,
      "inputs": [
        {
          "indexed": true,
          "internalType": "address",
          "name": "owner",
          "type": "address"
        },
        {
          "indexed": true,
          "internalType": "address",
          "name": "operator",
          "type": "address"
        },
        {
          "indexed": false,
          "internalType": "bool",
          "name": "approved",
          "type": "bool"
        }
      ],
      "name": "ApprovalForAll",
      "type": "event"
    },
    {
      "anonymous": false,
      "inputs": [
        {
          "indexed": true,
          "internalType": "address",
          "name": "previousOwner",
          "type": "address"
        },
        {
          "indexed": true,
          "internalType": "address",
          "name": "newOwner",
          "type": "address"
        }
      ],
      "name": "OwnershipTransferred",
      "type": "event"
    },
    {
      "anonymous": false,
      "inputs": [
        {
          "indexed": true,
          "internalType": "uint256",
          "name": "productId",
          "type": "uint256"
        }
      ],
      "name": "ProductFinalized",
      "type": "event"
    },
    {
      "anonymous": false,
      "inputs": [
        {
          "indexed": true,
          "internalType": "uint256",
          "name": "productId",
          "type": "uint256"
        },
        {
          "indexed": true,
          "internalType": "address",
          "name": "owner",
          "type": "address"
        }
      ],
      "name": "ProductMinted",
      "type": "event"
    },
    {
      "anonymous": false,
      "inputs": [
        {
          "indexed": true,
          "internalType": "uint256",
          "name": "productId",
          "type": "uint256"
        }
      ],
      "name": "ProductVerified",
      "type": "event"
    },
    {
      "anonymous": false,
      "inputs": [
        {
          "indexed": true,
          "internalType": "address",
          "name": "from",
          "type": "address"
        },
        {
          "indexed": true,
          "internalType": "address",
          "name": "to",
          "type": "address"
        },
        {
          "indexed": true,
          "internalType": "uint256",
          "name": "tokenId",
          "type": "uint256"
        }
      ],
      "name": "Transfer",
      "type": "event"
    },
    {
      "inputs": [
        {
          "internalType": "address",
          "name": "to",
          "type": "address"
        },
        {
          "internalType": "uint256",
          "name": "tokenId",
          "type": "uint256"
        }
      ],
      "name": "approve",
      "outputs": [],
      "stateMutability": "nonpayable",
      "type": "function"
    },
    {
      "inputs": [
        {
          "internalType": "address",
          "name": "owner",
          "type": "address"
        }
      ],
      "name": "balanceOf",
      "outputs": [
        {
          "internalType": "uint256",
          "name": "",
          "type": "uint256"
        }
      ],
      "stateMutability": "view",
      "type": "function"
    },
    {
      "inputs": [
        {
          "internalType": "uint256",
          "name": "tokenId",
          "type": "uint256"
        }
      ],
      "name": "exists",
      "outputs": [
        {
          "internalType": "bool",
          "name": "",
          "type": "bool"
        }
      ],
      "stateMutability": "view",
      "type": "function"
    },
    {
      "inputs": [
        {
          "internalType": "uint256",
          "name": "productId",
          "type": "uint256"
        }
      ],
      "name": "finalizeProduct",
      "outputs": [],
      "stateMutability": "nonpayable",
      "type": "function"
    },
    {
      "inputs": [
        {
          "internalType": "uint256",
          "name": "tokenId",
          "type": "uint256"
        }
      ],
      "name": "getApproved",
      "outputs": [
        {
          "internalType": "address",
          "name": "",
          "type": "address"
        }
      ],
      "stateMutability": "view",
      "type": "function"
    },
    {
      "inputs": [
        {
          "internalType": "uint256",
          "name": "productId",
          "type": "uint256"
        }
      ],
      "name": "getProductById",
      "outputs": [
        {
          "internalType": "string",
          "name": "batchId",
          "type": "string"
        },
        {
          "internalType": "string",
          "name": "certification",
          "type": "string"
        },
        {
          "internalType": "string",
          "name": "origin",
          "type": "string"
        },
        {
          "internalType": "uint256",
          "name": "timestamp",
          "type": "uint256"
        },
        {
          "internalType": "address",
          "name": "owner",
          "type": "address"
        },
        {
          "internalType": "enum ProductNFT.Status",
          "name": "status",
          "type": "uint8"
        }
      ],
      "stateMutability": "view",
      "type": "function"
    },
    {
      "inputs": [
        {
          "internalType": "address",
          "name": "owner",
          "type": "address"
        },
        {
          "internalType": "address",
          "name": "operator",
          "type": "address"
        }
      ],
      "name": "isApprovedForAll",
      "outputs": [
        {
          "internalType": "bool",
          "name": "",
          "type": "bool"
        }
      ],
      "stateMutability": "view",
      "type": "function"
    },
    {
      "inputs": [
        {
          "internalType": "string",
          "name": "batchId",
          "type": "string"
        },
        {
          "internalType": "string",
          "name": "certification",
          "type": "string"
        },
        {
          "internalType": "string",
          "name": "origin",
          "type": "string"
        },
        {
          "internalType": "uint256",
          "name": "timestamp",
          "type": "uint256"
        }
      ],
      "name": "mintNFT",
      "outputs": [
        {
          "internalType": "uint256",
          "name": "",
          "type": "uint256"
        }
      ],
      "stateMutability": "nonpayable",
      "type": "function"
    },
    {
      "inputs": [],
      "name": "name",
      "outputs": [
        {
          "internalType": "string",
          "name": "",
          "type": "string"
        }
      ],
      "stateMutability": "view",
      "type": "function"
    },
    {
      "inputs": [],
      "name": "owner",
      "outputs": [
        {
          "internalType": "address",
          "name": "",
          "type": "address"
        }
      ],
      "stateMutability": "view",
      "type": "function"
    },
    {
      "inputs": [
        {
          "internalType": "uint256",
          "name": "tokenId",
          "type": "uint256"
        }
      ],
      "name": "ownerOf",
      "outputs": [
        {
          "internalType": "address",
          "name": "",
          "type": "address"
        }
      ],
      "stateMutability": "view",
      "type": "function"
    },
    {
      "inputs": [],
      "name": "renounceOwnership",
      "outputs": [],
      "stateMutability": "nonpayable",
      "type": "function"
    },
    {
      "inputs": [
        {
          "internalType": "address",
          "name": "from",
          "type": "address"
        },
        {
          "internalType": "address",
          "name": "to",
          "type": "address"
        },
        {
          "internalType": "uint256",
          "name": "tokenId",
          "type": "uint256"
        }
      ],
      "name": "safeTransferFrom",
      "outputs": [],
      "stateMutability": "nonpayable",
      "type": "function"
    },
    {
      "inputs": [
        {
          "internalType": "address",
          "name": "from",
          "type": "address"
        },
        {
          "internalType": "address",
          "name": "to",
          "type": "address"
        },
        {
          "internalType": "uint256",
          "name": "tokenId",
          "type": "uint256"
        },
        {
          "internalType": "bytes",
          "name": "data",
          "type": "bytes"
        }
      ],
      "name": "safeTransferFrom",
      "outputs": [],
      "stateMutability": "nonpayable",
      "type": "function"
    },
    {
      "inputs": [
        {
          "internalType": "address",
          "name": "operator",
          "type": "address"
        },
        {
          "internalType": "bool",
          "name": "approved",
          "type": "bool"
        }
      ],
      "name": "setApprovalForAll",
      "outputs": [],
      "stateMutability": "nonpayable",
      "type": "function"
    },
    {
      "inputs": [
        {
          "internalType": "bytes4",
          "name": "interfaceId",
          "type": "bytes4"
        }
      ],
      "name": "supportsInterface",
      "outputs": [
        {
          "internalType": "bool",
          "name": "",
          "type": "bool"
        }
      ],
      "stateMutability": "view",
      "type": "function"
    },
    {
      "inputs": [],
      "name": "symbol",
      "outputs": [
        {
          "internalType": "string",
          "name": "",
          "type": "string"
        }
      ],
      "stateMutability": "view",
      "type": "function"
    },
    {
      "inputs": [
        {
          "internalType": "uint256",
          "name": "tokenId",
          "type": "uint256"
        }
      ],
      "name": "tokenURI",
      "outputs": [
        {
          "internalType": "string",
          "name": "",
          "type": "string"
        }
      ],
      "stateMutability": "view",
      "type": "function"
    },
    {
      "inputs": [
        {
          "internalType": "address",
          "name": "from",
          "type": "address"
        },
        {
          "internalType": "address",
          "name": "to",
          "type": "address"
        },
        {
          "internalType": "uint256",
          "name": "tokenId",
          "type": "uint256"
        }
      ],
      "name": "transferFrom",
      "outputs": [],
      "stateMutability": "nonpayable",
      "type": "function"
    },
    {
      "inputs": [
        {
          "internalType": "address",
          "name": "newOwner",
          "type": "address"
        }
      ],
      "name": "transferOwnership",
      "outputs": [],
      "stateMutability": "nonpayable",
      "type": "function"
    },
    {
      "inputs": [
        {
          "internalType": "uint256",
          "name": "productId",
          "type": "uint256"
        }
      ],
      "name": "verifyProduct",
      "outputs": [],
      "stateMutability": "nonpayable",
      "type": "function"
    }
  ],
  "bytecode": "0x60806040523480156200001157600080fd5b50336040518060400160405280600a81526020017f50726f647563744e4654000000000000000000000000000000000000000000008152506040518060400160405280600481526020017f504e465400000000000000000000000000000000000000000000000000000000815250816000908162000090919062000472565b508060019081620000a2919062000472565b505050600073ffffffffffffffffffffffffffffffffffffffff168173ffffffffffffffffffffffffffffffffffffffff16036200011a5760006040517f1e4fbdf70000000000000000000000000000000000000000000000000000000081526004016200011191906200059e565b60405180910390fd5b6200012b816200013260201b60201c565b50620005bb565b6000600660009054906101000a900473ffffffffffffffffffffffffffffffffffffffff16905081600660006101000a81548173ffffffffffffffffffffffffffffffffffffffff021916908373ffffffffffffffffffffffffffffffffffffffff1602179055508173ffffffffffffffffffffffffffffffffffffffff168173ffffffffffffffffffffffffffffffffffffffff167f8be0079c531659141344cd1fd0a4f28419497f9722a3daafe3b4186f6b6457e060405160405180910390a35050565b600081519050919050565b7f4e487b7100000000000000000000000000000000000000000000000000000000600052604160045260246000fd5b7f4e487b7100000000000000000000000000000000000000000000000000000000600052602260045260246000fd5b600060028204905060018216806200027a57607f821691505b60208210810362000290576200028f62000232565b5b50919050565b60008190508160005260206000209050919050565b60006020601f8301049050919050565b600082821b905092915050565b600060088302620002fa7fffffffffffffffffffffffffffffffffffffffffffffffffffffffffffffffff82620002bb565b620003068683620002bb565b95508019841693508086168417925050509392505050565b6000819050919050565b6000819050919050565b6000620003536200034d62000347846200031e565b62000328565b6200031e565b9050919050565b6000819050919050565b6200036f8362000332565b620003876200037e826200035a565b848454620002c8565b825550505050565b600090565b6200039e6200038f565b620003ab81848462000364565b505050565b5b81811015620003d357620003c760008262000394565b600181019050620003b1565b5050565b601f8211156200042257620003ec8162000296565b620003f784620002ab565b8101602085101562000407578190505b6200041f6200041685620002ab565b830182620003b0565b50505b505050565b600082821c905092915050565b6000620004476000198460080262000427565b1980831691505092915050565b600062000462838362000434565b9150826002028217905092915050565b6200047d82620001f8565b67ffffffffffffffff81111562000499576200049862000203565b5b620004a5825462000261565b620004b2828285620003d7565b600060209050601f831160018114620004ea5760008415620004d5578287015190505b620004e1858262000454565b86555062000551565b601f198416620004fa8662000296565b60005b828110156200052457848901518255600182019150602085019450602081019050620004fd565b8683101562000544578489015162000540601f89168262000434565b8355505b6001600288020188555050505b505050505050565b600073ffffffffffffffffffffffffffffffffffffffff82169050919050565b6000620005868262000559565b9050919050565b620005988162000579565b82525050565b6000602082019050620005b560008301846200058d565b92915050565b612f0f80620005cb6000396000f3fe608060405234801561001057600080fd5b50600436106101375760003560e01c8063524e8462116100b857806395d89b411161007c57806395d89b4114610363578063a22cb46514610381578063b88d4fde1461039d578063c87b56dd146103b9578063e985e9c5146103e9578063f2fde38b1461041957610137565b8063524e8462146102bf5780636352211e146102db57806370a082311461030b578063715018a61461033b5780638da5cb5b1461034557610137565b8063345a98c4116100ff578063345a98c4146101f2578063381e6ed1146102225780633f70c2b41461023e57806342842e0e146102735780634f558e791461028f57610137565b806301ffc9a71461013c57806306fdde031461016c578063081812fc1461018a578063095ea7b3146101ba57806323b872dd146101d6575b600080fd5b610156600480360381019061015191906120b1565b610435565b60405161016391906120f9565b60405180910390f35b610174610517565b60405161018191906121a4565b60405180910390f35b6101a4600480360381019061019f91906121fc565b6105a9565b6040516101b1919061226a565b60405180910390f35b6101d460048036038101906101cf91906122b1565b6105c5565b005b6101f060048036038101906101eb91906122f1565b6105db565b005b61020c60048036038101906102079190612479565b6106dd565b6040516102199190612543565b60405180910390f35b61023c600480360381019061023791906121fc565b610887565b005b610258600480360381019061025391906121fc565b6109c8565b60405161026a969594939291906125d5565b60405180910390f35b61028d600480360381019061028891906122f1565b610cc1565b005b6102a960048036038101906102a491906121fc565b610ce1565b6040516102b691906120f9565b60405180910390f35b6102d960048036038101906102d491906121fc565b610d22565b005b6102f560048036038101906102f091906121fc565b610e63565b604051610302919061226a565b60405180910390f35b6103256004803603810190610320919061264b565b610e75565b6040516103329190612543565b60405180910390f35b610343610f2f565b005b61034d610f43565b60405161035a919061226a565b60405180910390f35b61036b610f6d565b60405161037891906121a4565b60405180910390f35b61039b600480360381019061039691906126a4565b610fff565b005b6103b760048036038101906103b29190612785565b611015565b005b6103d360048036038101906103ce91906121fc565b61103a565b6040516103e091906121a4565b60405180910390f35b61040360048036038101906103fe9190612808565b6110a3565b60405161041091906120f9565b60405180910390f35b610433600480360381019061042e919061264b565b611137565b005b60007f80ac58cd000000000000000000000000000000000000000000000000000000007bffffffffffffffffffffffffffffffffffffffffffffffffffffffff1916827bffffffffffffffffffffffffffffffffffffffffffffffffffffffff1916148061050057507f5b5e139f000000000000000000000000000000000000000000000000000000007bffffffffffffffffffffffffffffffffffffffffffffffffffffffff1916827bffffffffffffffffffffffffffffffffffffffffffffffffffffffff1916145b80610510575061050f826111bd565b5b9050919050565b60606000805461052690612877565b80601f016020809104026020016040519081016040528092919081815260200182805461055290612877565b801561059f5780601f106105745761010080835404028352916020019161059f565b820191906000526020600020905b81548152906001019060200180831161058257829003601f168201915b5050505050905090565b60006105b482611227565b506105be826112af565b9050919050565b6105d782826105d26112ec565b6112f4565b5050565b600073ffffffffffffffffffffffffffffffffffffffff168273ffffffffffffffffffffffffffffffffffffffff160361064d5760006040517f64a0ae92000000000000000000000000000000000000000000000000000000008152600401610644919061226a565b60405180910390fd5b6000610661838361065c6112ec565b611306565b90508373ffffffffffffffffffffffffffffffffffffffff168173ffffffffffffffffffffffffffffffffffffffff16146106d7578382826040517f64283d7b0000000000000000000000000000000000000000000000000000000081526004016106ce939291906128a8565b60405180910390fd5b50505050565b6000600760008154809291906106f29061290e565b9190505550600060075490506107083382611520565b6040518060c001604052808781526020018681526020018581526020018481526020013373ffffffffffffffffffffffffffffffffffffffff1681526020016000600281111561075b5761075a61255e565b5b8152506008600083815260200190815260200160002060008201518160000190816107869190612b02565b50602082015181600101908161079c9190612b02565b5060408201518160020190816107b29190612b02565b506060820151816003015560808201518160040160006101000a81548173ffffffffffffffffffffffffffffffffffffffff021916908373ffffffffffffffffffffffffffffffffffffffff16021790555060a08201518160040160146101000a81548160ff0219169083600281111561082f5761082e61255e565b5b02179055509050503373ffffffffffffffffffffffffffffffffffffffff16817ff3a853d626792f09966551e5316e149f7320d034cb6a408a8b3d8eba20deea3b60405160405180910390a380915050949350505050565b61089081610ce1565b6108cf576040517f08c379a00000000000000000000000000000000000000000000000000000000081526004016108c690612c20565b60405180910390fd5b600160028111156108e3576108e261255e565b5b6008600083815260200190815260200160002060040160149054906101000a900460ff1660028111156109195761091861255e565b5b14610959576040517f08c379a000000000000000000000000000000000000000000000000000000000815260040161095090612cb2565b60405180910390fd5b60026008600083815260200190815260200160002060040160146101000a81548160ff021916908360028111156109935761099261255e565b5b0217905550807f3fdcfdd98c6b765ac08d4088c4d3d6a893c97f9f0b81a061bca0ca0a8c06a37b60405160405180910390a250565b606080606060008060006109db87610ce1565b610a1a576040517f08c379a0000000000000000000000000000000000000000000000000000000008152600401610a1190612c20565b60405180910390fd5b6000600860008981526020019081526020016000206040518060c0016040529081600082018054610a4a90612877565b80601f0160208091040260200160405190810160405280929190818152602001828054610a7690612877565b8015610ac35780601f10610a9857610100808354040283529160200191610ac3565b820191906000526020600020905b815481529060010190602001808311610aa657829003601f168201915b50505050508152602001600182018054610adc90612877565b80601f0160208091040260200160405190810160405280929190818152602001828054610b0890612877565b8015610b555780601f10610b2a57610100808354040283529160200191610b55565b820191906000526020600020905b815481529060010190602001808311610b3857829003601f168201915b50505050508152602001600282018054610b6e90612877565b80601f0160208091040260200160405190810160405280929190818152602001828054610b9a90612877565b8015610be75780601f10610bbc57610100808354040283529160200191610be7565b820191906000526020600020905b815481529060010190602001808311610bca57829003601f168201915b50505050508152602001600382015481526020016004820160009054906101000a900473ffffffffffffffffffffffffffffffffffffffff1673ffffffffffffffffffffffffffffffffffffffff1673ffffffffffffffffffffffffffffffffffffffff1681526020016004820160149054906101000a900460ff166002811115610c7557610c7461255e565b5b6002811115610c8757610c8661255e565b5b815250509050806000015181602001518260400151836060015184608001518560a001519650965096509650965096505091939550919395565b610cdc83838360405180602001604052806000815250611015565b505050565b60008073ffffffffffffffffffffffffffffffffffffffff16610d0383611619565b73ffffffffffffffffffffffffffffffffffffffff1614159050919050565b610d2b81610ce1565b610d6a576040517f08c379a0000000000000000000000000000000000000000000000000000000008152600401610d6190612c20565b60405180910390fd5b60006002811115610d7e57610d7d61255e565b5b6008600083815260200190815260200160002060040160149054906101000a900460ff166002811115610db457610db361255e565b5b14610df4576040517f08c379a0000000000000000000000000000000000000000000000000000000008152600401610deb90612d1e565b60405180910390fd5b60016008600083815260200190815260200160002060040160146101000a81548160ff02191690836002811115610e2e57610e2d61255e565b5b0217905550807f0ab290ee6a838866b5914ddc6bcd48309b8be846b045bd971b132e6b9cbe2f0760405160405180910390a250565b6000610e6e82611227565b9050919050565b60008073ffffffffffffffffffffffffffffffffffffffff168273ffffffffffffffffffffffffffffffffffffffff1603610ee85760006040517f89c62b64000000000000000000000000000000000000000000000000000000008152600401610edf919061226a565b60405180910390fd5b600360008373ffffffffffffffffffffffffffffffffffffffff1673ffffffffffffffffffffffffffffffffffffffff168152602001908152602001600020549050919050565b610f37611656565b610f4160006116dd565b565b6000600660009054906101000a900473ffffffffffffffffffffffffffffffffffffffff16905090565b606060018054610f7c90612877565b80601f0160208091040260200160405190810160405280929190818152602001828054610fa890612877565b8015610ff55780601f10610fca57610100808354040283529160200191610ff5565b820191906000526020600020905b815481529060010190602001808311610fd857829003601f168201915b5050505050905090565b61101161100a6112ec565b83836117a3565b5050565b6110208484846105db565b61103461102b6112ec565b85858585611912565b50505050565b606061104582611227565b506000611050611ac3565b90506000815111611070576040518060200160405280600081525061109b565b8061107a84611ada565b60405160200161108b929190612d7a565b6040516020818303038152906040525b915050919050565b6000600560008473ffffffffffffffffffffffffffffffffffffffff1673ffffffffffffffffffffffffffffffffffffffff16815260200190815260200160002060008373ffffffffffffffffffffffffffffffffffffffff1673ffffffffffffffffffffffffffffffffffffffff16815260200190815260200160002060009054906101000a900460ff16905092915050565b61113f611656565b600073ffffffffffffffffffffffffffffffffffffffff168173ffffffffffffffffffffffffffffffffffffffff16036111b15760006040517f1e4fbdf70000000000000000000000000000000000000000000000000000000081526004016111a8919061226a565b60405180910390fd5b6111ba816116dd565b50565b60007f01ffc9a7000000000000000000000000000000000000000000000000000000007bffffffffffffffffffffffffffffffffffffffffffffffffffffffff1916827bffffffffffffffffffffffffffffffffffffffffffffffffffffffff1916149050919050565b60008061123383611619565b9050600073ffffffffffffffffffffffffffffffffffffffff168173ffffffffffffffffffffffffffffffffffffffff16036112a657826040517f7e27328900000000000000000000000000000000000000000000000000000000815260040161129d9190612543565b60405180910390fd5b80915050919050565b60006004600083815260200190815260200160002060009054906101000a900473ffffffffffffffffffffffffffffffffffffffff169050919050565b600033905090565b6113018383836001611ba8565b505050565b60008061131284611619565b9050600073ffffffffffffffffffffffffffffffffffffffff168373ffffffffffffffffffffffffffffffffffffffff161461135457611353818486611d6d565b5b600073ffffffffffffffffffffffffffffffffffffffff168173ffffffffffffffffffffffffffffffffffffffff16146113e557611396600085600080611ba8565b6001600360008373ffffffffffffffffffffffffffffffffffffffff1673ffffffffffffffffffffffffffffffffffffffff168152602001908152602001600020600082825403925050819055505b600073ffffffffffffffffffffffffffffffffffffffff168573ffffffffffffffffffffffffffffffffffffffff1614611468576001600360008773ffffffffffffffffffffffffffffffffffffffff1673ffffffffffffffffffffffffffffffffffffffff168152602001908152602001600020600082825401925050819055505b846002600086815260200190815260200160002060006101000a81548173ffffffffffffffffffffffffffffffffffffffff021916908373ffffffffffffffffffffffffffffffffffffffff160217905550838573ffffffffffffffffffffffffffffffffffffffff168273ffffffffffffffffffffffffffffffffffffffff167fddf252ad1be2c89b69c2b068fc378daa952ba7f163c4a11628f55a4df523b3ef60405160405180910390a4809150509392505050565b600073ffffffffffffffffffffffffffffffffffffffff168273ffffffffffffffffffffffffffffffffffffffff16036115925760006040517f64a0ae92000000000000000000000000000000000000000000000000000000008152600401611589919061226a565b60405180910390fd5b60006115a083836000611306565b9050600073ffffffffffffffffffffffffffffffffffffffff168173ffffffffffffffffffffffffffffffffffffffff16146116145760006040517f73c6ac6e00000000000000000000000000000000000000000000000000000000815260040161160b919061226a565b60405180910390fd5b505050565b60006002600083815260200190815260200160002060009054906101000a900473ffffffffffffffffffffffffffffffffffffffff169050919050565b61165e6112ec565b73ffffffffffffffffffffffffffffffffffffffff1661167c610f43565b73ffffffffffffffffffffffffffffffffffffffff16146116db5761169f6112ec565b6040517f118cdaa70000000000000000000000000000000000000000000000000000000081526004016116d2919061226a565b60405180910390fd5b565b6000600660009054906101000a900473ffffffffffffffffffffffffffffffffffffffff16905081600660006101000a81548173ffffffffffffffffffffffffffffffffffffffff021916908373ffffffffffffffffffffffffffffffffffffffff1602179055508173ffffffffffffffffffffffffffffffffffffffff168173ffffffffffffffffffffffffffffffffffffffff167f8be0079c531659141344cd1fd0a4f28419497f9722a3daafe3b4186f6b6457e060405160405180910390a35050565b600073ffffffffffffffffffffffffffffffffffffffff168273ffffffffffffffffffffffffffffffffffffffff160361181457816040517f5b08ba1800000000000000000000000000000000000000000000000000000000815260040161180b919061226a565b60405180910390fd5b80600560008573ffffffffffffffffffffffffffffffffffffffff1673ffffffffffffffffffffffffffffffffffffffff16815260200190815260200160002060008473ffffffffffffffffffffffffffffffffffffffff1673ffffffffffffffffffffffffffffffffffffffff16815260200190815260200160002060006101000a81548160ff0219169083151502179055508173ffffffffffffffffffffffffffffffffffffffff168373ffffffffffffffffffffffffffffffffffffffff167f17307eab39ab6107e8899845ad3d59bd9653f200f220920489ca2b5937696c318360405161190591906120f9565b60405180910390a3505050565b60008373ffffffffffffffffffffffffffffffffffffffff163b1115611abc578273ffffffffffffffffffffffffffffffffffffffff1663150b7a02868685856040518563ffffffff1660e01b81526004016119719493929190612df3565b6020604051808303816000875af19250505080156119ad57506040513d601f19601f820116820180604052508101906119aa9190612e54565b60015b611a31573d80600081146119dd576040519150601f19603f3d011682016040523d82523d6000602084013e6119e2565b606091505b506000815103611a2957836040517f64a0ae92000000000000000000000000000000000000000000000000000000008152600401611a20919061226a565b60405180910390fd5b805181602001fd5b63150b7a0260e01b7bffffffffffffffffffffffffffffffffffffffffffffffffffffffff1916817bffffffffffffffffffffffffffffffffffffffffffffffffffffffff191614611aba57836040517f64a0ae92000000000000000000000000000000000000000000000000000000008152600401611ab1919061226a565b60405180910390fd5b505b5050505050565b606060405180602001604052806000815250905090565b606060006001611ae984611e31565b01905060008167ffffffffffffffff811115611b0857611b0761234e565b5b6040519080825280601f01601f191660200182016040528015611b3a5781602001600182028036833780820191505090505b509050600082602001820190505b600115611b9d578080600190039150507f3031323334353637383961626364656600000000000000000000000000000000600a86061a8153600a8581611b9157611b90612e81565b5b04945060008503611b48575b819350505050919050565b8080611be15750600073ffffffffffffffffffffffffffffffffffffffff168273ffffffffffffffffffffffffffffffffffffffff1614155b15611d15576000611bf184611227565b9050600073ffffffffffffffffffffffffffffffffffffffff168373ffffffffffffffffffffffffffffffffffffffff1614158015611c5c57508273ffffffffffffffffffffffffffffffffffffffff168173ffffffffffffffffffffffffffffffffffffffff1614155b8015611c6f5750611c6d81846110a3565b155b15611cb157826040517fa9fbf51f000000000000000000000000000000000000000000000000000000008152600401611ca8919061226a565b60405180910390fd5b8115611d1357838573ffffffffffffffffffffffffffffffffffffffff168273ffffffffffffffffffffffffffffffffffffffff167f8c5be1e5ebec7d5bd14f71427d1e84f3dd0314c0f7b2291e5b200ac8c7c3b92560405160405180910390a45b505b836004600085815260200190815260200160002060006101000a81548173ffffffffffffffffffffffffffffffffffffffff021916908373ffffffffffffffffffffffffffffffffffffffff16021790555050505050565b611d78838383611f84565b611e2c57600073ffffffffffffffffffffffffffffffffffffffff168373ffffffffffffffffffffffffffffffffffffffff1603611ded57806040517f7e273289000000000000000000000000000000000000000000000000000000008152600401611de49190612543565b60405180910390fd5b81816040517f177e802f000000000000000000000000000000000000000000000000000000008152600401611e23929190612eb0565b60405180910390fd5b505050565b600080600090507a184f03e93ff9f4daa797ed6e38ed64bf6a1f0100000000000000008310611e8f577a184f03e93ff9f4daa797ed6e38ed64bf6a1f0100000000000000008381611e8557611e84612e81565b5b0492506040810190505b6d04ee2d6d415b85acef81000000008310611ecc576d04ee2d6d415b85acef81000000008381611ec257611ec1612e81565b5b0492506020810190505b662386f26fc100008310611efb57662386f26fc100008381611ef157611ef0612e81565b5b0492506010810190505b6305f5e1008310611f24576305f5e1008381611f1a57611f19612e81565b5b0492506008810190505b6127108310611f49576127108381611f3f57611f3e612e81565b5b0492506004810190505b60648310611f6c5760648381611f6257611f61612e81565b5b0492506002810190505b600a8310611f7b576001810190505b80915050919050565b60008073ffffffffffffffffffffffffffffffffffffffff168373ffffffffffffffffffffffffffffffffffffffff161415801561203c57508273ffffffffffffffffffffffffffffffffffffffff168473ffffffffffffffffffffffffffffffffffffffff161480611ffd5750611ffc84846110a3565b5b8061203b57508273ffffffffffffffffffffffffffffffffffffffff16612023836112af565b73ffffffffffffffffffffffffffffffffffffffff16145b5b90509392505050565b6000604051905090565b600080fd5b600080fd5b60007fffffffff0000000000000000000000000000000000000000000000000000000082169050919050565b61208e81612059565b811461209957600080fd5b50565b6000813590506120ab81612085565b92915050565b6000602082840312156120c7576120c661204f565b5b60006120d58482850161209c565b91505092915050565b60008115159050919050565b6120f3816120de565b82525050565b600060208201905061210e60008301846120ea565b92915050565b600081519050919050565b600082825260208201905092915050565b60005b8381101561214e578082015181840152602081019050612133565b60008484015250505050565b6000601f19601f8301169050919050565b600061217682612114565b612180818561211f565b9350612190818560208601612130565b6121998161215a565b840191505092915050565b600060208201905081810360008301526121be818461216b565b905092915050565b6000819050919050565b6121d9816121c6565b81146121e457600080fd5b50565b6000813590506121f6816121d0565b92915050565b6000602082840312156122125761221161204f565b5b6000612220848285016121e7565b91505092915050565b600073ffffffffffffffffffffffffffffffffffffffff82169050919050565b600061225482612229565b9050919050565b61226481612249565b82525050565b600060208201905061227f600083018461225b565b92915050565b61228e81612249565b811461229957600080fd5b50565b6000813590506122ab81612285565b92915050565b600080604083850312156122c8576122c761204f565b5b60006122d68582860161229c565b92505060206122e7858286016121e7565b9150509250929050565b60008060006060848603121561230a5761230961204f565b5b60006123188682870161229c565b93505060206123298682870161229c565b925050604061233a868287016121e7565b9150509250925092565b600080fd5b600080fd5b7f4e487b7100000000000000000000000000000000000000000000000000000000600052604160045260246000fd5b6123868261215a565b810181811067ffffffffffffffff821117156123a5576123a461234e565b5b80604052505050565b60006123b8612045565b90506123c4828261237d565b919050565b600067ffffffffffffffff8211156123e4576123e361234e565b5b6123ed8261215a565b9050602081019050919050565b82818337600083830152505050565b600061241c612417846123c9565b6123ae565b90508281526020810184848401111561243857612437612349565b5b6124438482856123fa565b509392505050565b600082601f8301126124605761245f612344565b5b8135612470848260208601612409565b91505092915050565b600080600080608085870312156124935761249261204f565b5b600085013567ffffffffffffffff8111156124b1576124b0612054565b5b6124bd8782880161244b565b945050602085013567ffffffffffffffff8111156124de576124dd612054565b5b6124ea8782880161244b565b935050604085013567ffffffffffffffff81111561250b5761250a612054565b5b6125178782880161244b565b9250506060612528878288016121e7565b91505092959194509250565b61253d816121c6565b82525050565b60006020820190506125586000830184612534565b92915050565b7f4e487b7100000000000000000000000000000000000000000000000000000000600052602160045260246000fd5b6003811061259e5761259d61255e565b5b50565b60008190506125af8261258d565b919050565b60006125bf826125a1565b9050919050565b6125cf816125b4565b82525050565b600060c08201905081810360008301526125ef818961216b565b90508181036020830152612603818861216b565b90508181036040830152612617818761216b565b90506126266060830186612534565b612633608083018561225b565b61264060a08301846125c6565b979650505050505050565b6000602082840312156126615761266061204f565b5b600061266f8482850161229c565b91505092915050565b612681816120de565b811461268c57600080fd5b50565b60008135905061269e81612678565b92915050565b600080604083850312156126bb576126ba61204f565b5b60006126c98582860161229c565b92505060206126da8582860161268f565b9150509250929050565b600067ffffffffffffffff8211156126ff576126fe61234e565b5b6127088261215a565b9050602081019050919050565b6000612728612723846126e4565b6123ae565b90508281526020810184848401111561274457612743612349565b5b61274f8482856123fa565b509392505050565b600082601f83011261276c5761276b612344565b5b813561277c848260208601612715565b91505092915050565b6000806000806080858703121561279f5761279e61204f565b5b60006127ad8782880161229c565b94505060206127be8782880161229c565b93505060406127cf878288016121e7565b925050606085013567ffffffffffffffff8111156127f0576127ef612054565b5b6127fc87828801612757565b91505092959194509250565b6000806040838503121561281f5761281e61204f565b5b600061282d8582860161229c565b925050602061283e8582860161229c565b9150509250929050565b7f4e487b7100000000000000000000000000000000000000000000000000000000600052602260045260246000fd5b6000600282049050600182168061288f57607f821691505b6020821081036128a2576128a1612848565b5b50919050565b60006060820190506128bd600083018661225b565b6128ca6020830185612534565b6128d7604083018461225b565b949350505050565b7f4e487b7100000000000000000000000000000000000000000000000000000000600052601160045260246000fd5b6000612919826121c6565b91507fffffffffffffffffffffffffffffffffffffffffffffffffffffffffffffffff820361294b5761294a6128df565b5b600182019050919050565b60008190508160005260206000209050919050565b60006020601f8301049050919050565b600082821b905092915050565b6000600883026129b87fffffffffffffffffffffffffffffffffffffffffffffffffffffffffffffffff8261297b565b6129c2868361297b565b95508019841693508086168417925050509392505050565b6000819050919050565b60006129ff6129fa6129f5846121c6565b6129da565b6121c6565b9050919050565b6000819050919050565b612a19836129e4565b612a2d612a2582612a06565b848454612988565b825550505050565b600090565b612a42612a35565b612a4d818484612a10565b505050565b5b81811015612a7157612a66600082612a3a565b600181019050612a53565b5050565b601f821115612ab657612a8781612956565b612a908461296b565b81016020851015612a9f578190505b612ab3612aab8561296b565b830182612a52565b50505b505050565b600082821c905092915050565b6000612ad960001984600802612abb565b1980831691505092915050565b6000612af28383612ac8565b9150826002028217905092915050565b612b0b82612114565b67ffffffffffffffff811115612b2457612b2361234e565b5b612b2e8254612877565b612b39828285612a75565b600060209050601f831160018114612b6c5760008415612b5a578287015190505b612b648582612ae6565b865550612bcc565b601f198416612b7a86612956565b60005b82811015612ba257848901518255600182019150602085019450602081019050612b7d565b86831015612bbf5784890151612bbb601f891682612ac8565b8355505b6001600288020188555050505b505050505050565b7f50726f6475637420646f6573206e6f7420657869737400000000000000000000600082015250565b6000612c0a60168361211f565b9150612c1582612bd4565b602082019050919050565b60006020820190508181036000830152612c3981612bfd565b9050919050565b7f50726f64756374206d75737420626520696e205665726966696564207374617460008201527f6500000000000000000000000000000000000000000000000000000000000000602082015250565b6000612c9c60218361211f565b9150612ca782612c40565b604082019050919050565b60006020820190508181036000830152612ccb81612c8f565b9050919050565b7f50726f64756374206d75737420626520696e2043726561746564207374617465600082015250565b6000612d0860208361211f565b9150612d1382612cd2565b602082019050919050565b60006020820190508181036000830152612d3781612cfb565b9050919050565b600081905092915050565b6000612d5482612114565b612d5e8185612d3e565b9350612d6e818560208601612130565b80840191505092915050565b6000612d868285612d49565b9150612d928284612d49565b91508190509392505050565b600081519050919050565b600082825260208201905092915050565b6000612dc582612d9e565b612dcf8185612da9565b9350612ddf818560208601612130565b612de88161215a565b840191505092915050565b6000608082019050612e08600083018761225b565b612e15602083018661225b565b612e226040830185612534565b8181036060830152612e348184612dba565b905095945050505050565b600081519050612e4e81612085565b92915050565b600060208284031215612e6a57612e6961204f565b5b6000612e7884828501612e3f565b91505092915050565b7f4e487b7100000000000000000000000000000000000000000000000000000000600052601260045260246000fd5b6000604082019050612ec5600083018561225b565b612ed26020830184612534565b939250505056fea26469706673582212204e2f456e31eeb192df209d913d08edfb628448a699ac42d2d1413fa4923d90ab64736f6c63430008140033",
  "linkReferences": {},
  "deployedLinkReferences": {}
}